:020000040000FA
:0400000080312828FB
:100008007E1480314E01961E0A280B2813288C1E58
:100018000E280F2813288D31FC25803126280B1F28
:10002800162817282628991E1A281B2826288F1EC6
:100038001E281F282628410157088A0056080A004A
:10004800803126287E10090080312A28B5308400A6
:100058008D308500D8308600003087000A308D3119
:100068007B258031FA01FB01FC01FD01A0308400F1
:10007800003085002E308D31752580312030840088
:100088000130850020308D31752580317E1040018A
:100098008231C22A4001C7003A08CE003B08CF008F
:1000A8003C08D0003D08D1003E08D2003F08D300EC
:1000B8004008D4004108D5004E3086000030870043
:1000C800473FC200C21B69286B2801306C280030EA
:1000D8004001C300C4014308CC004408CD004C08CB
:1000E8004D040319782879289728CE09CF09D00913
:1000F800D109D209D309D409D509CE0A031D9728F5
:10010800CF0A031D9728D00A031D9728D10A031D7B
:100118009728D20A031D9728D30A031D9728D40AC3
:10012800031D9728D50A4101B51B9B289C28A028A8
:10013800FD30B605FF30B7053508803A4001C200EA
:1001480080304202031DAB280130410134020318FC
:10015800AE28AF28B52801304001C8000030C900DA
:10016800BD28410135084001C9004101340840015A
:10017800C800410133084001CB0041013208400169
:10018800CA004C084D04031DCA28CB28D0284101B9
:10019800361DCF28D028D528FF304001CA07FF30A8
:1001A800CB3D1F304001D6000030D7004201BF01CF
:1001B8004629FF304001D607FF30D73D0A30A0005E
:1001C800A101A201A301A401A501A601A7014E084E
:1001D800A8004F08A9005008AA005108AB0052080F
:1001E800AC005308AD005408AE005508AF00833189
:1001F800BD23803140012108B3002008B2008E31B0
:100208009026803140013208303EC2005608203E18
:1002180086000130870042088100FF30C807FF30A0
:10022800C93DFF30CA07FF30CB3D0A30A000A1010D
:10023800A201A301A401A501A601A7014E08A800D7
:100248004F08A9005008AA005108AB005208AC009A
:100258005308AD005408AE005508AF008131BE21E7
:10026800803140012008CE002108CF002208D000AC
:100278002308D1002408D2002508D3002608D4007A
:100288002708D50040015708803AC2008030420252
:10029800031D502901305602031C53295429812972
:1002A80040014E084F0450045104520453045404AE
:1002B8005504031D60296129DD284908803AC200D8
:1002C80080304202031D6A290130480203186D2953
:1002D8006E29DD2840014B08803AC2008030420276
:1002E800031D782901304A02031C7B297C298129B6
:1002F8004101B61880298129DD2840014C084D04A8
:10030800031D872988298D294101361D8C298D29AE
:10031800AA29FF304001D607FF30D73D4C084D04CD
:10032800031D972998299D292B30C5000030C60048
:10033800A1292D30C5000030C6004508C200560866
:10034800203E86000130870042088100400156089F
:10035800203EC2004208B0004B08B2004A08B10073
:10036800470887315627803140013108BB003008E3
:10037800BA0008004001B101203086000030870033
:10038800473FF400F41FC929CA29EC294001A009F4
:10039800A109A209A309A409A509A609A709A00AF0
:1003A800031DE929A10A031DE929A20A031DE92958
:1003B800A30A031DE929A40A031DE929A50A031DA7
:1003C800E929A60A031DE929A70A4001B101B10AD2
:1003D8002830860000308700473FF400F41FF529D5
:1003E800F6291A2A4001A809A909AA09AB09AC09E2
:1003F800AD09AE09AF09A80A031D152AA90A031DEC
:10040800152AAA0A031D152AAB0A031D152AAC0AC8
:10041800031D152AAD0A031D152AAE0A031D152A48
:10042800AF0A0130F40074084001B106323086008A
:10043800003087000830F40000301E00F40B212A39
:10044800400120082104220423042404250426044E
:1004580027040319302A312A8D2AB001B00A402A0C
:10046800A035A10DA20DA30DA40DA50DA60DA70DD8
:100478000130F4007408B007A71F432A442A342A1D
:10048800B235B30DB40DB50DB60DB70DB80DB90D28
:1004980027082F02031D6A2A26082E02031D6A2A2E
:1004A80025082D02031D6A2A24082C02031D6A2A26
:1004B80023082B02031D6A2A22082A02031D6A2A1E
:1004C80021082902031D6A2A20082802031C6D2A14
:1004D8006E2A7F2A2008A8022108A93B2208AA3BE5
:1004E8002308AB3B2408AC3B2508AD3B2608AE3BB4
:1004F8002708AF3B3214A736A60CA50CA40CA30CF6
:10050800A20CA10CA00C0130B002031D8C2A8D2A6C
:10051800442A31080319912A922AB02AB209B30948
:10052800B409B509B609B709B809B909B20A031D6A
:10053800B02AB30A031DB02AB40A031DB02AB50AAB
:10054800031DB02AB60A031DB02AB70A031DB02A34
:10055800B80A031DB02AB90A40013208A0003308BE
:10056800A1003408A2003508A3003608A400370803
:10057800A5003808A6003908A70008008D31BF2556
:100588008231E630F4000D30F5008D316925823175
:10059800D130F4000630F5008D31632582318B1798
:1005A8000B1700304101E2009030E3008E31132632
:1005B8008231410161084102031DE42A60084002BA
:1005C800031CE72AE82A0A2B00308D319025823156
:1005D8008D3181258231003A0319F32AF42AEC2A55
:1005E8008D314B25823175084101EB007408EA0012
:1005F8000930E2009030E3006B08E5006A08E40087
:100608008E31132682314101C001C1015F083F02CA
:10061800031D102B5E083E02031C132B142B362BD4
:1006280001308D31902582318D3181258231003A1A
:1006380003191F2B202B182B8D314B258231750860
:100648004101EB007408EA000F30E2009030E3004B
:100658006B08E5006A08E4008E31132682314101F7
:10066800BE01BF015D083D02031D3C2B5C083C0236
:10067800031C3F2B402B622B02308D319025823199
:100688008D3181258231003A03194B2B4C2B442B99
:100698008D314B25823175084101EB007408EA0061
:1006A8001530E2009030E3006B08E5006A08E400CA
:1006B8008E31132682314101BC01BD015B083B022A
:1006C800031D682B5A083A02031C6B2B6C2B8E2BCC
:1006D80004308D31902582318D3181258231003A67
:1006E8000319772B782B702B8D314B2582317508A8
:1006F8004101EB007408EA001B30E2009030E3008F
:100708006B08E5006A08E4008E3113268231410146
:10071800BA01BB0159083902031D942B5808380245
:10072800031C972B982BDD2A05308D3190258231BB
:100738008D3181258231003A0319A32BA42B9C2BE0
:100748008D314B25823175084101EB007408EA00B0
:100758002130E2009030E3006B08E5006A08E4000D
:100768008E31132682314101B801B901DD2A803169
:1007780028284001B1012830860000308700473F13
:10078800F400F41FC82BC92BEB2B4001A809A909B9
:10079800AA09AB09AC09AD09AE09AF09A80A031D3E
:1007A800E82BA90A031DE82BAA0A031DE82BAB0AAC
:1007B800031DE82BAC0A031DE82BAD0A031DE82B2B
:1007C800AE0A031DE82BAF0A4001B101B10A20307F
:1007D800860000308700473FF400F41FF42BF52B08
:1007E800142C4001A009A109A209A309A409A5097B
:1007F800A609A709A00A031D142CA10A031D142C7D
:10080800A20A031D142CA30A031D142CA40A031DF9
:10081800142CA50A031D142CA60A031D142CA70AC0
:10082800400120082104220423042404250426046A
:1008380027040319202C212C742CB001B00A302C69
:10084800A035A10DA20DA30DA40DA50DA60DA70DF4
:100858000130F4007408B007A71F332C342C242C63
:1008680027082F02031D522C26082E02031D522C86
:1008780025082D02031D522C24082C02031D522C7E
:1008880023082B02031D522C22082A02031D522C76
:1008980021082902031D522C20082802031C552C6C
:1008A800562C662C2008A8022108A93B2208AA3B3E
:1008B8002308AB3B2408AC3B2508AD3B2608AE3BE0
:1008C8002708AF3BA736A60CA50CA40CA30CA20CBA
:1008D800A10CA00C0130B002031D732C742C342C15
:1008E80031080319782C792C972CA809A909AA0989
:1008F800AB09AC09AD09AE09AF09A80A031D972CCD
:10090800A90A031D972CAA0A031D972CAB0A031DDD
:10091800972CAC0A031D972CAD0A031D972CAE0A21
:10092800031D972CAF0A40012808A0002908A10040
:100938002A08A2002B08A3002C08A4002D08A50053
:100948002E08A6002F08A70008004001E700580855
:1009580086008701403FDA00413FDB005A088400E7
:100968005B0885001200253A031DBB2CBC2C602DAA
:100978005808860087010130810741310318810A30
:100988004101B201B301B601B701FF30B400FF3035
:10099800B5004001580886008701403FDA00413F12
:1009A800DB005A0884005B0885001200643A0319CA
:1009B800DE2CDF2CF02C580886008701403FDA0037
:1009C800413FDB005A0884005B0885001200693A41
:1009D800031DEF2CF02C2B2D5808860087010130C1
:1009E800810741310318810A5908860087010108E7
:1009F8008400850102308107003FDA00013FDB00F7
:100A08005A08DF005B08E000890D893B8909E1008D
:100A1800E200E300E400E500E6005F08BA006008D1
:100A2800BB006108BC006208BD006308BE00640822
:100A3800BF006508C0006608C100670880314E2005
:100A4800843140013B08D9003A08D800832D580862
:100A580086008701403FDA00413FDB005A088400E6
:100A68005B0885001200253A031D3B2D3C2D552DB2
:100A78005808860087010130810741310318810A2F
:100A88002530A0000030A1006708DA005A08A2004B
:100A98008731AF27843101304001D8000030D900B8
:100AA800832D5808860087010130810741310318DA
:100AB800810AD801D901832D580886008701403F53
:100AC800DA00413FDB005A0884005B088500000813
:100AD800DC00DD015C08A0005D08A1006708DE00FD
:100AE8005E08A2008731AF2784314001580886008C
:100AF80087010130810741310318810A4F2D080011
:100B08004001AD00AB01AC01A401A5018F2D01305E
:100B1800A0002008AD07AA01AA0A2D0886008701AF
:100B2800203001060319992D9A2DAE2D2D08860027
:100B380087010108F73EA000FF3003180030A1002C
:100B480000302102053003192002031CAC2DAD2D05
:100B5800AE2DAA012A08A000A1012008A60021089C
:100B6800A70026082704031DBA2DBB2D8B2DC52DE4
:100B78000130A4000030A5000130A0002008AD0716
:100B8800F52D2D08860087010108A000A101210884
:100B9800003A0319D02DF52D20082B3A0319C02D42
:100BA800063A0319BC2DF52D2D08860087012C085F
:100BB800F1002B08F0000A30F2000030F3008E310B
:100BC800AC26853171084001A10001087002A0001F
:100BD800031CA1032008303EAB000030213DAC00CF
:100BE800C02D2D08860087010108D03EA000FF30E7
:100BF80003180030A100003021020A300319200236
:100C0800031C072E092E01300A2E0030A200A30172
:100C18002208A8002308A90028082904031D152E66
:100C2800162ED82D24082504031D1B2E1C2E282E15
:100C38002B09A0002C09A100A00A0319A10A200869
:100C4800F6002108F7002C2E2C08F7002B08F600D8
:100C58000800F8007808F4007408F90072087304B2
:100C6800031D372E382E392ED02E7008F40079083F
:100C780086008701740881007008F40072087907FB
:100C8800F5007508FF3E8600870174088100003072
:100C980073020330031972020318532E542E552E73
:100CA800D02E7008F400790A860087017408810044
:100CB8007008F4007908023E8600870174088100F4
:100CC8007008F40072087907F5007508FE3E860082
:100CD8008701740881007008F40072087907F5002C
:100CE8007508FD3E86008701740881000030730294
:100CF8000730031972020318822E832E842ED02EF9
:100D08007008F4007908033E8600870174088100A2
:100D18007008F40072087907F5007508FC3E860033
:100D280087017408810000307302093003197202C8
:100D380003189F2EA02EA12ED02E7909F4007A092F
:100D4800F500F40A0319F50A03307405F6000030BB
:100D58007505F7007608F4007408F9077608F202BA
:100D68007708F33BFC30F205FF30F305CA2E700814
:100D7800F400790886008701740881000130F202C6
:100D88000030F33B0130F4007408F907720873046B
:100D9800031DCF2ED02EBB2E08008F31C7278631DA
:100DA8008D3188258631003A0319DB2EDC2E552F2C
:100DB8008E31EC268631F2007208FA000A307A0683
:100DC8000319E72EE82EFC2E0830410144020318CF
:100DD800EE2EEF2EFC2E7A08F2004408C63E86005E
:100DE8008701720881000130F2007208C407552F8C
:100DF8004101C401312FC7308531842586317708F8
:100E08004101E1007608E0004A2FC730853184258A
:100E1800863177084101DF007608DE004A2FC730A7
:100E280085318425863177084101DD007608DC00AC
:100E38004A2FC73085318425863177084101DB0088
:100E48007608DA004A2FC73085318425863177083D
:100E58004101D9007608D8004A2F4608F200F3016C
:100E68007308003A0319392F4A2F7208413A0319B7
:100E7800FF2E033A0319092F013A0319132F073AD2
:100E880003191D2F013A0319272F4A2F0030F000AC
:100E9800F1000830F2000030F300C63086312D260C
:100EA800863108004001B8004101361C5C2F5D2FD7
:100EB800662F40013808B3003308A80030088F3186
:100EC8003D2787314001B21B6A2F6B2F702F3208E4
:100ED800B7003108B600722FB601B701B401B501E9
:100EE800862F20304001A0000030A1003808B30050
:100EF8003308A2008731AF27873101304001B4079A
:100F08000030B53D3508803AB3003708803A3302DF
:100F1800031D902F36083402031C932F942F752F2E
:100F280041013618982F992FA22F40013808B30095
:100F38003308A80030088F313D2787314001300839
:100F48008E3175268731400136087407B00037089E
:100F5800753DB1000800400122080319B42FB52FD0
:100F6800BA2F2208031DB92FBA2FBF2F20088D31A1
:100F78006F258731EF2F2208033E86008701160070
:100F880001040319C82FC92FE62F2208033E860043
:100F98008701403FA300413FA400220A8600870141
:100FA800403FA500413FA6002608803AA700240834
:100FB800803A2702031DE22F230825020318E52F94
:100FC800E62FEF2F4001220A8600870101308107B2
:100FD80041310318810A080041014E084F040319E2
:100FE800F62FF72FFC2F4F088A004E080A0087318A
:060FF800080008000800DB
:101A86008E3142268D31080042011D121D160800B6
:101A960041011E08F5001D08F40008007508410103
:101AA600D1007408D000080075084101D5007408FB
:101AB600D400080075084101D3007408D20008005C
:101AC60075084101D7007408D60008007508410161
:101AD600CF007408CE000800F50075088D31AB25DF
:101AE6008D310800640080010131890B762D0034A8
:101AF600FE0012001E00FE0B7C2D00340310420176
:101B0600111C03140030093D08007B08031D8C2DB1
:101B16008E2D01308F2D00300800F400740841012D
:101B26009F004201911711140800603051018D0089
:101B36008F01910102309300920108004F01960136
:101B46009701980199019A019B019C019D0108004A
:101B5600F4004E010F1EB02DB12DAC2D74084201BC
:101B66009A00080001340034013400340134003492
:101B760001340034013400348D31A1258D318F318B
:101B860014278D318D3198258D318E315B268D311F
:101B96008D31D2258D318F3166278D310800493040
:101BA6004B019F00C2309D009C014E018C1296167F
:101BB600FE30F4000730F5008D3169258D31803017
:101BC6004B019E00080001304101C0070030C13DB5
:101BD6000130BE070030BF3D0130BC070030BD3DBF
:101BE6000130BA070030BB3D0130B8070030B93DBF
:101BF60008004E018C1201304101C2070030C33D7E
:101C0600003043020A3003194202031C0B2E0C2E2D
:101C1600122E8731F0278D314101C201C301080020
:101C2600E4304101E6006608E90063084001E90086
:101C3600410162084001E800E9304101E60066081A
:101C46004001EA0000308F3196278E310800700877
:101C5600D03EF200FF30713DF300003073020A30CF
:101C660003197202031C382E3A2E01303B2E003027
:101C7600F400F5017408F0007508F100080042014F
:101C86001908F0007D08A83E8600870170088100CB
:101C96000130F0007008FD0708307D02031C542E49
:101CA600552E562EFD010130F0007008FB07080086
:101CB60041018C018D018E018F01920193019801E2
:101CC6009A019F0142018C018D018E018F019001C5
:101CD6009201930194019501960197019801843030
:101CE600910008004001A2002208A0002008A100DF
:101CF600802E0130A0002008A207220886000130AD
:101D060087000108031D882E892E7C2E21082202B9
:101D1600F400F501F41BF503080040013308803A8E
:101D2600B40080303402031D9A2E013032020318AB
:101D36009D2E9E2EAB2E40013209B4003309B5000C
:101D4600B40A0319B50A3408B2003508B300AB2E3D
:101D56000800F401F501701CB12EB22EB62E7208E1
:101D6600F4077308F53D0130F235F30D890BB72EF4
:101D76000130F136F00C890BBC2E70087104031D7E
:101D8600C52EC62EAE2E7508F1007408F0000800A8
:101D9600F401F40A2030700671040319D32ED42EF0
:101DA600E42E7008F73EF200FF30713DF30000307C
:101DB6007302053003197202031CE22EE32EE42E91
:101DC600F4017408F200F3017208F0007308F100E0
:101DD60008007B080319F02EF12EEC2E7C08A03E9D
:101DE600860087010108F00070084101C5007C08E3
:101DF600A83E860087010108F0007008F100013056
:101E0600F0007008FC0708307C02031C0B2F0C2F17
:101E16000D2FFC014E0199120130FB029916710833
:101E260008004001980199019A013F309200E03084
:101E36009300FF309400FF307E01CE00A030C30037
:101E46003730B800C401B901CF01BA01C501D001CC
:101E56003730BB00F030C600FF30D1003F30BC0049
:101E6600F030C700FF30D2000F309C000E307D01ED
:101E7600CB0008004001AF00AD01AE01552F2C0884
:101E8600A900AA012908A0002A08A1002808AB0079
:101E96002B08A2008731AF278F3101304001AD07F3
:101EA6000030AE3D2D082F07A90029088600013015
:101EB60087000108AA002A08AC002C08031D642F1D
:101EC600652F422F08004E019912C730F4000F30DB
:101ED600F5008D3163258F31083042019F00903027
:101EE6009D0024309E0067309B009C01FD30F4006D
:101EF6000730F5008D3157258F314730F4000D300E
:101F0600F5008D315D258F314330F4000D30F5003D
:101F16008D3151258F314101C501FD01FC01FB01C8
:101F26004E01991608004001ED006908EF006808A7
:101F3600EE004101B001B101B42F6E30EB006B0829
:101F4600D8006A08EC006C08D9006D088431A92411
:101F56008F31400158084101B0074001590841013D
:101F6600B13D40016E0884006F0885001200031D14
:101F7600BD2FBE2FA02F410131084001E9004101CC
:101F860030084001E80008007D08A03E8600870171
:101F9600810142011D1DD02FD12FDC2F7D08A03ECF
:101FA600860087018114410155088A0054080A00F9
:101FB6008F3142019D1CE02FE12FEC2F7D08A03EC2
:101FC600860087010115410153088A0052080A005C
:101FD6008F317D08A03E8600870101080319F42F82
:101FE600F52FFC2F410151088A0050080A008F3155
:101FF600FF2F8E3142268F31080049344E34493442
:10200600433449344F340A340D34003441342534D2
:1020160064340D340A3400344234253464340D34C7
:102026000A3400344334253464340D340A3400341D
:102036004434253464340D340A34003445342534AC
:0820460064340D340A34003447
:020000040001F9
:0A000E00EC3FFF3F9F3FFF3FFF3F25
:00000001FF
